:020000040800F2
:10000000600A00209D0100083B200008151D000823
:1000100039200008B1020008A52B000800000000EC
:100020000000000000000000000000001123000894
:1000300013030008000000005D20000813230008DF
:10004000B7010008B7010008B7010008B7010008B0
:10005000B7010008B7010008B7010008B7010008A0
:10006000B7010008B7010008B7010008B701000890
:10007000B7010008B7010008B5020008C102000876
:10008000CD020008D9020008B7010008B701000836
:10009000B7010008B7010008B7010008B701000860
:1000A000B7010008B7010008B7010008B701000850
:1000B000ED230008B7010008B7010008B7010008E8
:1000C000B7010008B7010008B7010008B701000830
:1000D000B7010008152B0008992B0008B70100088C
:1000E000B7010008B7010008B7010008B701000810
:1000F000B7010008B7010008B7010008B701000800
:10010000B7010008B7010008B7010008B7010008EF
:10011000B7010008B7010008B7010008B7010008DF
:10012000B7010008B7010008B7010008B7010008CF
:10013000B7010008B7010008B7010008B7010008BF
:10014000B7010008B7010008B7010008B7010008AF
:10015000B7010008B7010008B7010008B70100089F
:10016000B7010008B7010008B7010008B70100088F
:10017000B7010008B7010008B7010008000000003F
:10018000B7010008B7010008DFF80CD000F07EF8D6
:1001900000480047C52B0008600A00200648804739
:1001A00006480047FEE7FEE7FEE7FEE7FEE7FEE75C
:1001B000FEE7FEE7FEE7FEE7A92300088901000845
:1001C0002DE9F05F0546002092469B46884606468C
:1001D000814640241BE0284641464746224600F01F
:1001E00044F853465A46C01A914110D31146184656
:1001F000224600F02BF82D1A67EB01084F462246E5
:100200000120002100F022F817EB00094E41201ECA
:10021000A4F10104DFDC484631462A46434600F09B
:1002200000B830BCBDE8C09FD2B201E000F8012B9D
:10023000491EFBD270470022F6E710B513460A4666
:1002400004461946FFF7F0FF204610BD202A04DBC4
:10025000203A00FA02F1002070479140C2F12003D9
:1002600020FA03F3194390407047202A04DB203A18
:1002700021FA02F00021704721FA02F3D040C2F1C6
:10028000200291400843194670470000064C074D74
:1002900006E0E06840F0010394E807009847103456
:1002A000AC42F6D3FFF774FFCC2D0008EC2D00080C
:1002B000FEE70000014800F075B800008805002046
:1002C000014800F06FB8000040050020014800F030
:1002D00069B80000D0050020014800F063B80000B4
:1002E0001806002030B590F8444004F01C050124A5
:1002F000AC40056C6C60046863608368102B036815
:1003000003D099600068C26030BD9A600068C16027
:1003100030BD70477047006980B27047C8B101684E
:100320000A6822F00E020A6001680A6822F00102DF
:100330000A6090F84410036C01F01C02012101FADC
:1003400002F25A6080F82510002180F82410084637
:1003500070470120704710B590F82510002402293D
:1003600003D00421C16301241AE001680A6822F065
:100370000E020A6001680A6822F001020A6090F821
:100380004410036C01F01C02012101FA02F25A60D0
:1003900080F82510002180F82410816B01B1884776
:1003A000204610BDF0B4016C0C6801680D6890F82F
:1003B000442002F01C06042202FA06F3234211D064
:1003C0006B070FD50B689B0603D40B6823F004035F
:1003D0000B6090F8441001F01C018A40016C4A60E7
:1003E000016B1DE0022303FA06F727424FF0000CD1
:1003F0004FF0010218D0AF0716D50C68A40605D43B
:100400000C6824F00A040C6080F8252090F8441051
:1004100001F01C018B40016C4B6080F824C0C16A64
:1004200000291AD0F0BC08470823B340234214D057
:100430002B0712D50B6823F00E030B6090F84410C5
:10044000036C01F01C0102FA01F15960C26380F8EB
:10045000252080F824C0416BE2E7F0BC7047000023
:1004600070B568B12B4C036814212B4AA34209D202
:100470002A4C1C44B4FBF1F18900C0E910210BE0C7
:10048000012070BD234C64421C44B4FBF1F189008F
:100490004164204908390164022180F825101C6854
:1004A00047F6F0718C43D0E902152943D0E9045690
:1004B0003543294385692943C5692943056A294389
:1004C000214319608168B1F5804F19D0036C0F2169
:1004D000934202D152F8A83F02E00E4AA0321368BC
:1004E00090F8444004F01C04A1408B43136090F842
:1004F0004430416803F01C039940136819431160AC
:100500000021C163012280F8252080F824100846CC
:1005100070BD00000804024000000240F8FFFDBF6B
:1005200070B5044690F82400002501280CD0012065
:1005300084F8240094F825600020012E06D084F869
:1005400024000225284670BD022070BD022684F8D2
:100550002560E0632068066826F0010606602046F4
:10056000FFF7C0FE206B00282068016802D041F030
:100570000E0106E021F0040101602068016841F0ED
:100580000A0101602068016841F001010160D9E7BA
:1005900070B5044600F0F4F80546601C00D0641CF9
:1005A00000F0EEF8401BA042FAD370BD2DE9F84FE1
:1005B000DFF898B100234FF0010C4FF0030A4FF021
:1005C0000F090BF1040EB9E00CFA03F4224070D0CD
:1005D0004D68022D01D0122D0ED1DD0800EB8508EB
:1005E000D8F820505E07F70E09FA07F6B5430E69F2
:1005F000BE402E43C8F8206007685E0091F8048072
:100600000AFA06F508F00308AF4308FA06F848EAC4
:100610000708C0F800804F68012F05D0022F03D0D3
:10062000112F01D0122F13D1D0F80880CF6828EAFB
:100630000508B74047EA08078760D0F804800F79BB
:1006400028EA0408C7F300179F4047EA08074760F5
:10065000D1F804806FEA0807BF0706D1C76AA7432D
:10066000C8F3C0049C403C43C462C468AC438D687A
:10067000B5402543C5604C68E4005ED5344C256E1A
:1006800045F001052566246E23F0030504F00104FE
:100690000094304C2E19B4689D072F0F09FA07F506
:1006A000AC43B0F1904F05D02B4DA84204D10125A9
:1006B0001CE042E0002519E0284DA84201D10225A6
:1006C00014E0274DA84201D103250FE0254DA84293
:1006D00001D104250AE0244DA84201D1052505E0F9
:1006E000224DA84201D1062500E00725BD40254343
:1006F000B560DBF800405D464E689443F60300D5D4
:1007000014432C60DEF8004075464E689443B603EF
:1007100000D514432C600D4D08352C684E68944369
:10072000F60200D514432C60084D0C352C684E6839
:100730009443B60200D514432C605B1C0A6832FA5D
:1007400003F57FF441AF00F013B80000000401404E
:10075000001002400000014000040048000800486A
:10076000000C004800100048001400480018004821
:1007700018BCBDE8E08F0AB18161704781627047A3
:100780000148006870470000080000200248016826
:10079000491C01607047000008000020094810B59E
:1007A0000168002441F480710160032000F066F8C4
:1007B000002000F009F808B1012401E000F01CF865
:1007C000204610BD0020024070B5054609484FF490
:1007D0007A7100240068B0FBF1F000F0B9FD08B1B7
:1007E000012404E000222946501E00F027F820468C
:1007F00070BD00000C000020094808B5016E41F0F2
:1008000001010166016E01F001010091816D41F06D
:1008100080518165806D00F08050009008BD00001F
:100820000010024000F01F020121914040098000A9
:1008300000F1E020C0F8001170470000F0B40E4B4A
:100840001B680C46C3F30223C3F10705042D00D92E
:100850000425191D072901D2002300E0DB1E012613
:1008600006FA05F1491E214099409E40761E164029
:100870003143F0BC01F0E2BB0CED00E0064900F0B2
:10088000070208684FF6FF03184040EA0220034AB7
:1008900010430860704700000CED00E00000FA050E
:1008A0001649B0F5007F0868C0F3412009D002283E
:1008B00005D0086820F4C06040F480600860002023
:1008C00070470128FBD0086820F4C06040F4007035
:1008D00008600B483222006850430A4AB0FBF2F02D
:1008E000401C00E0401E4A69520501D50028F9D19C
:1008F00048694005E3D503207047000000700040C0
:100900000C00002040420F000248006800F4C06064
:1009100070470000007000400248016841F4807197
:1009200001607047007000400248016841F0040116
:1009300001607047001002402DE9F84F044600277F
:100940000088E54D3E46010504F1200B1DD5606E83
:1009500078B1B0F5800F11D0B0F5000F04D0B0F52C
:10096000400F22D001270FE0E86840F48030E860B3
:100970001BE00021201D01F073FB03E0002158461D
:1009800001F004FC070010D03E462088C00426D5A4
:10099000A06EC0B1B0F1807F1AD0B0F1007F0DD051
:1009A000B0F1407F19D0012718E0D5F88800616EBA
:1009B00020F440000843C5F88800E6E7E86840F402
:1009C0008030E86009E00021201D01F049FB03E0D0
:1009D0000021584601F0DAFB0746F7B13E46206891
:1009E00080033AD5A86D4FF00008C00009D4A86D67
:1009F00040F08050A865A86D4FF0010800F08050CD
:100A00000090DFF8D8A2DAF8001041F48071CAF83B
:100A10000010FFF7B5FE814610E0D5F88800A16E02
:100A200020F040700843C5F88800D8E7FFF7A8FE1B
:100A3000A0EB0900022801D9032705E0DAF800003D
:100A4000C005F3D5002F7CD04FEA0706B8F1000FA0
:100A500003D0A86D20F08050A8652078C00707D08B
:100A6000D5F88800A16B20F003000843C5F8880082
:100A70002078800707D5D5F88800E16B20F00C00BE
:100A80000843C5F888002078400707D5D5F88800C6
:100A9000216C20F030000843C5F88800207800075A
:100AA00007D5D5F88800616C20F0C0000843C5F870
:100AB00088002078C00607D5D5F88800A16C20F4FE
:100AC00040700843C5F888002078800607D5D5F81F
:100AD0008800E16C20F440600843C5F88800208855
:100AE000800507D5D5F88800E16D20F44020084343
:100AF000C5F888002088400507D5D5F88800216E04
:100B000020F440100843C5F888002078400607D537
:100B1000D5F88800216D20F440500843C5F88800BE
:100B20002078000607D5D5F88800616D20F4404094
:100B30000843C5F888002088C00509D5D5F8880085
:100B400000E01CE0A16D20F440300843C5F88800A7
:100B500020884FF0006780044FF080684FD5D5F8AB
:100B60008800E16E20F040600843C5F88800E06E20
:100B7000B8423CD1E86840F48010E8603FE0D5F826
:100B8000900010F4407015D0D4F88410814211D038
:100B9000D5F89000D5F8901020F4407041F48031E1
:100BA000C5F89010D5F8901021F48031C5F8901058
:100BB000C5F89000C00710D0FFF7E2FD074641F2EC
:100BC000883906E0FFF7DCFDC11B494501D9032642
:100BD0003CE7D5F890008007F4D5D5F89000D4F81C
:100BE000841020F440700843C5F890002EE740457B
:100BF00005D10121201D01F033FA00B1064620681D
:100C0000000317D5D5F88800216F20F04060084315
:100C1000C5F88800206FB84204D1E86840F480101D
:100C2000E86007E0404505D10121201D01F018FAD8
:100C300000B106462068400317D5D5F88800616FDB
:100C400020F040600843C5F88800606FB84204D1C6
:100C5000E86840F48010E86007E0404505D10121D4
:100C6000201D01F0FDF900B10646208840041AD588
:100C7000D5F88800A16F20F040500843C5F88800DF
:100C8000A06FB0F1805F03D0B0F1005F05D00AE043
:100C90000221201D01F0E4F903E00221584601F091
:100CA00075FA00B106462088000407D5D5F88800FB
:100CB000E16F20F080400843C5F888002068C00339
:100CC00007D555F8880FD4F8801020F0004008436D
:100CD0002860304600F004B8001002400070004068
:100CE00018BCBDE8E08F00002DE9F0470F46050075
:100CF00058D03F4E306800F00700B84209D2306843
:100D000020F0070038433060306800F00700B84238
:100D100048D12878374CC0072CD06868032811D0F8
:100D2000022812D0216898B1490500293ADAA16851
:100D300021F003010143A160FFF722FD804641F24B
:100D4000883910E021688901EFE721688903ECE721
:100D50008907EAE7FFF714FDA0EB0801494502D92E
:100D60000320BDE8F087A068696800F00C00B0EBD4
:100D7000810FEFD12878800705D5A068A96820F0F9
:100D8000F0000843A060306800F00700B8420BD9BB
:100D9000306820F0070038433060306800F007000A
:100DA000B84201D00120DCE72878400705D5A068CB
:100DB000E96820F4E0600843A0602878000706D5C1
:100DC000A068296920F4605040EAC100A06000F0EA
:100DD0003BF8A168084AC1F30311515C01F01F01FF
:100DE000C84006490860BDE8F0470020FFF7ECBCAA
:100DF0000020024000100240842D00080C0000205A
:100E00000548064900688968054AC1F30221515C1A
:100E100001F01F01C84070470C0000200010024084
:100E2000C42D00080548064900688968054AC1F3D1
:100E3000C221515C01F01F01C84070470C00002026
:100E400000100240C42D000870B525490023184643
:100E50008A68CC6812F00C0204F00306214C4FEAB9
:100E6000640509D00C2A05D0042A26D0082A00D10E
:100E7000284670BD012E10D10B681B0704D4D1F891
:100E80009430C3F3032302E00B68C3F30313164E3D
:100E900056F823307AB10C2AEBD1C86800F003026F
:100EA000C868C0F30210401C022A08D0032A09D0E7
:100EB000B3FBF0F008E0184670BD204670BDB4FBEF
:100EC000F0F001E0B5FBF0F0CA68C968C2F3062291
:100ED0005043C1F34161491C4900B0FBF1F070BDC2
:100EE000001002400024F400942D00082DE9F8437E
:100EF00005007CD0FD4CA06800F00C06E06800F016
:100F000003072878C00661D576B10C2E01D1012FD8
:100F10000AD0A8690028206878D040F0010020603D
:100F2000FFF72EFC804659E02068800702D5A869AB
:100F30000028DED0286A2168090703D5216801F05E
:100F4000F00104E0D4F89410F02202EA1111884272
:100F500015D901F09FF9002849D1206840F0080018
:100F600020602068296A20F0F00008432060606853
:100F7000E96920F47F4040EA0120606015E02068C4
:100F800040F0080020602068296A20F0F000084343
:100F900020606068E96920F47F4040EA01206060D9
:100FA000286A01F077F90028D6D1FFF74DFFA16834
:100FB000CF4AC1F30311515C01F01F01C840CD4974
:100FC00008600020FFF700FC00287DD12FE000BF63
:100FD000FFF7D6FBA0EB0800022876D82068800730
:100FE000F6D5206840F008002060206801E0BBE0F2
:100FF0000CE0296A20F0F000084320606068E9698D
:1010000020F47F4040EA0120606010E020F0010001
:101010002060FFF7B5FB804606E000BFFFF7B0FB9E
:10102000A0EB08000228D8D820688007F6D42878DA
:10103000C00740D0082E18D00C2E01D1032F14D099
:101040006868B0F5803F17D0B0F5A02F206817D0A2
:1010500020F480302060206820F4802020606868C0
:10106000E0B1FFF78DFB804614E02068800322D5B5
:101070006868002878D01EE0206840F48030EDE7F2
:1010800040F480202060F7E7FFF77AFBA0EB080030
:101090006428A2D820688003F6D50CE0FFF770FB27
:1010A000804605E0FFF76CFBA0EB0800642894D8AD
:1010B00020688003F6D4287880073BD5042E11D011
:1010C0000C2E04D1022F01E036E1A1E00AD0E8683D
:1010D000002820681ED040F480702060FFF750FB8D
:1010E00007460CE0206840050CD5E8680028C1D010
:1010F00008E000BFFFF744FBC01B022893D820681C
:101100004005F7D56068297C20F0F85040EA01607E
:1011100060600FE020F480702060FFF731FB07462D
:1011200005E000BFFFF72CFBC01B022870D8206829
:101130004005F7D42878000729D568690028D4F835
:10114000940012D040F00100C4F89400FFF718FB9F
:10115000074604E0FFF714FBC01B022858D8D4F858
:1011600094008007F6D512E0EDE020F00100C4F80D
:101170009400FFF705FB074605E000BFFFF700FB03
:10118000C01B022844D8D4F894008007F6D42878ED
:10119000400768D5A06D0027C00008D4A06D40F0BE
:1011A0008050A065A06D012700F08050009052484B
:1011B0000168C90512D40168814641F4807101605B
:1011C000FFF7DEFA804605E0FFF7DAFAA0EB080049
:1011D00002281DD8D9F80000C005F5D5A868012857
:1011E00017D00528D4F8900018D020F00100C4F8DA
:1011F0009000D4F8900020F0040000BFC4F89000E4
:10120000A86841F28839D0B1FFF7BAFA804611E0F8
:101210006BE0D4F8900040F00100EFE740F00400EC
:10122000C4F89000F5E700BFFFF7AAFAA0EB0801A9
:1012300049455AD8D4F890008007F5D50EE0FFF75D
:101240009FFA804606E000BFFFF79AFAA0EB08017C
:10125000494570D8D4F890008007F5D41FB1A06D2F
:1012600020F08050A065A86AF0B30C2E6BD0022845
:10127000206820F08070206004D0206810F0205F8B
:1012800047D04AE0FFF77CFA064604E0FFF778FA19
:10129000801B02284FD820688001F7D4286BE96AA8
:1012A000000110380843696BAA6B0902120941EA70
:1012B00042410843A98F114A490802EB41510843B2
:1012C00095F840104908120102EB41610843E060C3
:1012D000206840F080702060E06840F08070E0603E
:1012E000FFF74EFA054610E02BE024E00010024024
:1012F000842D00080C000020007000400000E0FF7A
:10130000FFF73EFA401B022815D820688001F7D568
:1013100017E0E06820F00300E060E0680B49084057
:10132000E060FFF72DFA054608E000BFFFF728FA56
:10133000401B022802D90320BDE8F8832068800101
:10134000F4D40020F8E70120F6E70000FFFFEEFEEE
:1013500010B5401EB0F1807F01D3012010BD4FF0C9
:10136000E02460610F21601700F068FE0020A0619A
:1013700007202061002010BD7047704770470000B3
:1013800070B590F83C20012A24D0012480F83C401C
:10139000022280F83D200268536895680E4EB242E2
:1013A00002D00E4EB24203D123F470064B68334391
:1013B00023F070060B688968334325F080052943C4
:1013C00053600268916080F83D40002180F83C1035
:1013D000084670BD022070BD002C01400034014061
:1013E00010B5040003D094F83D0010B107E00120CF
:1013F00010BD002084F83C00204600F00DF80220CB
:1014000084F83D00211D206800F0F6FF012084F8DB
:101410003D00002010BD000008B50068B0F1804F0D
:1014200008D10548816D41F001018165806D00F0B2
:101430000100009008BD0000001002400168CA6869
:1014400022F00102CA600068016A41F211121142E1
:1014500007D1016A9210114203D1016821F0010104
:10146000016000207047000070B5044690F83C0011
:10147000012817D0012584F83C50022084F83D0053
:1014800020688268324E324022F47F4282600868CF
:10149000502839D00DDC202855D005DC98B3102811
:1014A00043D150E0022070BD30284CD040283CD1C0
:1014B00041E0602830D070280CD0B0F5805F03D0B8
:1014C000B0F5005F31D112E020688168204A7032A7
:1014D000114016E0CB68D1E90121206800F0ECFF53
:1014E00021688868304040F0770088601DE0CB6854
:1014F000D1E90121206800F0DFFF2068816841F414
:101500008041816011E01EE0CA684968206800F0EF
:10151000E5FF5021206806E0CA684968206800F0AD
:10152000EEFF6021206800F0D1FF84F83D500020DC
:1015300084F83C0070BDCA684968206800F0CEFF9E
:1015400040212068EFE7226801461046EBE70000E3
:1015500088FFFEFF704770B50446006801694FF0D0
:101560000005C943890715D4C168C943890711D447
:10157000E91E0161012020772068806980072046EC
:1015800002D0FFF7E7FF04E000F0A7F8204600F0E4
:10159000A5F8257720680169C943490717D4C168B0
:1015A000C943490713D46FF0040101610220207779
:1015B0002068806910F4407F204602D0FFF7CAFF00
:1015C00004E000F08AF8204600F088F825772068CB
:1015D0000169C943090716D4C168C943090712D470
:1015E0006FF008010161042020772068C06980073E
:1015F000204602D0FFF7AEFF04E000F06EF8204670
:1016000000F06CF8257720680169C943C90617D432
:10161000C168C943C90613D46FF0100101610820E5
:1016200020772068C06910F4407F204602D0FFF781
:1016300091FF04E000F051F8204600F04FF82577C4
:1016400020680169C943C90708D1C168C943C907EE
:1016500004D1891E0161204600F042F8206801692A
:10166000C943090609D4C168C943090605D46FF006
:10167000800101612046FFF780FE20680169C943AF
:10168000C90509D4C168C943090605D46FF480713E
:1016900001612046FFF770FE20680169C9434906D1
:1016A00009D4C168C943490605D46FF040010161FE
:1016B000204600F03DF820680169C94389060BD433
:1016C000C168C943890607D46FF020010161204633
:1016D000BDE87040FFF752BE70BD70477047000014
:1016E00070B501680F48B1F1804F02D14178491CB3
:1016F00041704078642813D30B48FFF79FFE012206
:101700000A4D540221462846FFF735F83220FEF7ED
:101710003FFF21462846BDE870400022FFF72BB866
:1017200070BD0000000000201004002000080048E8
:101730007047704710B5044690F8710021280ED10B
:101740002068816809060AD5816821F080018160DE
:10175000A06E08B1FEF7E2FD204600F0F4FF94F819
:10176000720022280ED12068816849060AD5816856
:1017700021F040018160E06E08B1FEF7CFFD204608
:1017800000F0D1FF002010BD704700002DE9F041AE
:1017900002680446D0691168936810F00F0F4FF08B
:1017A00000055BD003F0010601F49077374369D060
:1017B000C70707D0CF0505D501271762626F42F032
:1017C00001026267820708D5DA0706D0276802227D
:1017D0003A62626F42F004026267420708D5DA0794
:1017E00006D0236804221A62626F42F00202626726
:1017F00002070AD501F02002324306D023680822EE
:101800001A62626F42F008026267626F002A32D089
:10181000800605D5880603D5216E09B12046884784
:10182000606F000703D420688068400625D52046F5
:1018300000F079FF20688168490619D5816821F098
:1018400040018160E06E98B120498163E06EFEF74F
:1018500082FD00280FD0E06E816B06E0860611D570
:101860008E060FD5216E1EE02046BDE8F0410847E8
:101870002046FFF789FFBDE8F0812046FFF784FF8F
:101880006567F8E7C60209D55B0207D54FF48010FB
:1018900010622046BDE8F041FFF74BBF030605D5B7
:1018A0000B0603D5616E0029DED1E4E74006E2D5E0
:1018B0004806E0D51168204621F040011160202142
:1018C00084F87110656600F023FAD4E74726000813
:1018D00010B5040003D094F8710010B107E00120A6
:1018E00010BD002084F87000204600F027F8242066
:1018F00084F871002068016821F001010160204630
:1019000000F086FF0128EBD0606A10B1204600F09D
:1019100008FE2068416821F4904141602068816898
:1019200021F02A0181602068016841F00101016015
:101930002046BDE8104000F058BE00002DE9F043FD
:1019400087B0044614216846FEF775FCDFF828C10D
:1019500026684A4B03200721002502274FF09042BA
:101960004FF010094FF0800866453FD11E6E46F4D7
:1019700080461E661E6E06F480460596DE6C46F0B6
:101980000106DE64DB6C029503F001030593CDE9EB
:1019900003014302CDE9003769461046FEF706FE13
:1019A000384E37483060C6E90175C6E9035875619D
:1019B0003803B561C6E907503046FEF751FD08B15E
:1019C000FEF7A8FCE666B4622F4E2D48C6E9035820
:1019D0007561B561F5611438356286E8810230467B
:1019E00042E0A666B46207B0BDE8F083DFF89CC0B1
:1019F0006645F8D19E6D46F400369E659E6D06F4F0
:101A000000360596DE6C46F00106DE64DB6C02955E
:101A100003F001030593CDE903010C23CDE9003761
:101A200069461046FEF7C2FD1548194E1430306065
:101A3000C6E90175C6E903587561B561F5613046BF
:101A40003562FEF70DFD08B1FEF764FCE666B46290
:101A5000104E0B48C6E903587561B561F561283031
:101A6000356286E881023046FEF7FAFC0028B8D0DD
:101A7000FEF750FCB5E700000038014000100240BE
:101A80005800024040050020880500200044004026
:101A9000D00500201806002070B5044690F87200AA
:101AA000202839D1A9B3A2B394F87000012833D00B
:101AB000012084F870006165A4F85820002565674E
:101AC000222084F87200E16E14481346C862E16E69
:101AD00013480863E16E13484863E06E8563666DE2
:101AE000216832462431E06EFEF71AFD84F870500A
:101AF0002068016841F4807101602068816841F0CC
:101B0000010181602068816841F04001816000200E
:101B100070BDFFE70120FBE70220F9E7A5260008DA
:101B2000E32600085B26000830B590F87230202BC1
:101B30004AD1B1B1AAB190F87030012B44D0012341
:101B400080F870304165A0F85820A0F85A20002293
:101B500002661D038168FF23A94207D1016911B103
:101B60000CE0012030BD40F2FF110DE07F2419B1DF
:101B7000B1F1805F05D009E0016901BBA0F85C30DC
:101B800004E00169D9B13F21A0F85C10426722212D
:101B900080F8721001688B6843F001038B608168E4
:101BA000A94201D1016969B10849016680F8702034
:101BB0000068016841F490710160002030BDA0F818
:101BC0005C40E3E70249F0E7022030BDB52700089A
:101BD00059270008704770472DE9F843044690F8EC
:101BE00071001F4616460D4620284BD1C5B1BEB127
:101BF00094F87000012845D0012084F870004FF05F
:101C00000008C4F87480212084F87100FEF7B8FD44
:101C1000A4F850608146A4F852604FF4805615E055
:101C20000120BDE8F8838021204600F041FFD8B9AB
:101C3000A068B04201D12069C0B115F8010B21683C
:101C40000885B4F85200401EA4F85200B4F85200BF
:101C50004B464FF0000200970028E4D14FF04001BE
:101C6000204600F025FF30B10320DAE735F8020BFB
:101C7000C0F30800E3E7202084F8710084F8708046
:101C80000020CEE70220CCE770B5044690F8710042
:101C9000202834D181B37AB394F8700001282ED073
:101CA000012084F87000E164A4F85020A4F85220C8
:101CB00000256567212084F87100A16E1148134644
:101CC000C862A16E10480863A16E10484863A06EF8
:101CD00085632668E16C06F12802A06EFEF720FC01
:101CE00021684020086284F870502068816841F0C3
:101CF00080018160002070BDFFE70120FBE702202A
:101D0000F9E70000ED2600081D2700085B26000803
:101D100070477047FEE700002DE9F0475F4E002452
:101D20000122F0213046FEF726FD5D4D2846FEF7E4
:101D3000F2FA000B7ED00520FEF72AFC2846FEF7BB
:101D4000EAFA000B76D0B0460022F0214046FEF7BA
:101D500012FD012210213046FEF70DFD0120FEF795
:101D600017FCAA462846FEF7D6FA4FF4005500F4B1
:101D700070404FF480596E00AF00484575D0A842BE
:101D800075D0B04275D0B84200D141245046FEF71C
:101D9000C2FA000BFAD10022F0214046FEF7EBFC1C
:101DA000012220214046FEF7E6FC0120FEF7F0FB71
:101DB0005046FEF7B0FA00F4704048455BD0A842A8
:101DC0005BD0B0425BD0B84200D142245046FEF70F
:101DD000A2FA000BFAD10022F0214046FEF7CBFC1C
:101DE000012240214046FEF7C6FC0120FEF7D0FB51
:101DF0005046FEF790FA00F47040484541D0A842A2
:101E000041D0B04241D0B84200D143245046FEF701
:101E100082FA000BFAD10022F0214046FEF7ABFC1B
:101E2000012280214046FEF7A6FC0120FEF7B0FB10
:101E3000D04600E014E05046FEF76DFA00F4704022
:101E4000484524D0A84224D0B04224D0B84200D182
:101E5000442445462846FEF75EFA000BFAD1204698
:101E6000BDE8F08701E002E003E031248EE7322490
:101E70008CE733248AE73424A8E73524A6E7362400
:101E8000A4E73724C2E73824C0E73924BEE72A2470
:101E9000DFE73024DDE72324DBE70000000800480B
:101EA000000400482DE9F04186B014216846FEF791
:101EB000C2F92D48C16C41F00401C164C16C01F04C
:101EC00004010591C16C41F08001C164C16C01F055
:101ED00080010591C16C41F00101C164C16C01F048
:101EE00001010591C16C41F00201C164C06C4FF069
:101EF000904700F002000590002220213846FEF7AE
:101F00003AFCDFF868804FF47C7600223146404688
:101F1000FEF731FC4FF40050009015480024CDE945
:101F2000010469464046FEF741FB20200090012550
:101F3000CDE90154694638460394FEF737FB009615
:101F4000CDE901540225694640460395FEF72EFB74
:101F50004FF470408DE8310069460648FEF726FBD5
:101F600006B0BDE8F0810000001002400008004803
:101F7000000021100004004810B588B00024124869
:101F80000094019402940394049405944FF08041CA
:101F9000069401604F21C0E901144CF24F31C0E9B1
:101FA00003148461FFF71CFA4FF4805000906946D7
:101FB0000548FFF759FA049404A903480694FFF76B
:101FC000DFF908B010BD00001004002009480849DE
:101FD00001604FF416514160002181600C22C16004
:101FE000C0E904128161C16101624162FFF770BC06
:101FF00000380140500400200D4810B50B49016025
:102000004FF4E1314160002181600C22C160C0E9E0
:1020100004128161C16101624162FFF759FCBDE8B0
:102020001040012203490248FFF77EBD00440040F2
:10203000C804002002000020FEE770470907090ECF
:10204000002806DA00F00F0000F1E02080F8141DEF
:10205000704700F1E02080F80014704770470000DE
:102060002DE9F041444C05468846E068002681078A
:1020700028680DD0E16801F00301814216D1A8B1B2
:10208000E0686968C0F30210401C88420ED120E06D
:10209000012804D0022805D0032807D108E02168D0
:1020A000890701E021684905002907DB01265FE077
:1020B0002168890302D421684903F5E7E1686A6869
:1020C0006FF00F0321F0730103EB02121143014380
:1020D000E160206820F080602060FEF751FB074639
:1020E00005E000BFFEF74CFBC01B022837D8206874
:1020F0000001F7D4B8F1000F18D0B8F1010F1ED0CD
:10210000287D4FF07E41400801EB4060A96840EA1D
:1021100001202169194A114008432061206840F0DC
:1021200080602060FEF72CFB07461AE0A868E9688B
:102130000002090940EA41402169114AEBE7288A77
:102140001049400801EB4050A96840EA012021698C
:102150000D4AE0E7FEF714FBC01B022801D9032655
:1021600006E020680001F5D52069A96908432061CF
:102170003046BDE8F081000000100240FF80FFF90A
:10218000FF80FDFF0000E0FFFF809FFF2DE9F04191
:102190003D4C06468846E0680025810730680DD032
:1021A000E16801F00301814216D1A8B1E0687168CD
:1021B000C0F30210401C88420ED120E0012804D058
:1021C000022805D0032807D108E02168890701E02B
:1021D00021684905002907DB012551E021688903B1
:1021E00002D421684903F5E7E16872686FF00F03D4
:1021F00021F0730103EB021211430143E1602068F7
:1022000020F080502060FEF7BBFA074605E000BFD3
:10221000FEF7B6FAC01B022829D820688000F7D440
:10222000B8F1000F15D0307C4FF07E41400801EB33
:102230004060B16840EA01206169144A11400843D6
:102240006061206840F080502060FEF799FA0746F0
:102250000FE0B068F1680002090940EA4140616995
:102260000B4AEBE7FEF78CFAC01B022801D90325C5
:1022700006E020688000F5D56069716908436061F7
:102280002846BDE8F081000000100240FF80FFF901
:10229000FF80FDFFF8B51C4D06460024A86DC00068
:1022A00002D5FEF731FB0DE0A86D40F08050A86527
:1022B000A86D00F080500090FEF726FBA96D21F07C
:1022C0008051A965B0F5007F04D0802E07D94FF06A
:1022D00003040AE0802E08D9A02E01D804E001D121
:1022E000022402E0702E00D101240848016821F088
:1022F000070121430160006800F00700A04201D0FF
:102300000120F8BD0020F8BD00100240002002406E
:102310007047FEF73BBA000030B5B9B0442122A89F
:10232000FDF789FF142133A8FDF785FF8821684652
:10233000FDF781FFFEF7F0FA1A4850F8901F21F0E0
:1023400018010160142022900120249000246021B3
:102350002890CDE929410221CDE92C102E9028208A
:102360002F900720CDE9300122A83291FEF7BEFD63
:1023700003250F20CDE9345433903694042133A83B
:102380003794FEF7B1FC00950E9468460F94FEF763
:10239000D3FA4FF40070FEF783FAFEF7C5FA39B0AE
:1023A00030BD0000001002400D48016841F470018A
:1023B00001600C48016841F0010101600021816069
:1023C0000268094B1A4002608214C260026822F45B
:1023D0008022026081610249C00380390860704731
:1023E00088ED00E000100240FFFFF6EA0148FFF729
:1023F000B2B80000100400202DE9F0470268264B17
:10240000264D274E274F284C4FF0804A984209D03E
:10241000504507D0A84205D0B04203D0B84201D001
:10242000A04204D122F0700C4A6842EA0C02DFF8A4
:102430007CC0DFF87C80DFF87C9098420FD050455C
:102440000DD0A8420BD0B04209D0B84207D0A0426C
:1024500005D0604503D0404501D0484503D122F462
:102460004075CA682A434D6922F080022A430260FF
:102470008A68C2620A688262984207D0A04205D088
:10248000604503D0404501D0484501D10969016349
:1024900001214161BDE8F087002C014000040040AB
:1024A00000080040000C00400034014000400140A2
:1024B000004401400048014010B5846842EA03220C
:1024C00024F47F440A432243826010BD826822F0D4
:1024D00070020A4342F007018160704710B5036A39
:1024E000046A24F001040462846924F0F00444EADC
:1024F000021423F00A020A438461026210BD10B57F
:10250000036A23F0100303628369046A23F47043AF
:1025100043EA023224F0A00343EA0111826101621E
:1025200010BD90F82410C90706D001684A68836A74
:1025300022F400321A434A6090F82410890706D525
:1025400001684A68C36A22F480321A434A6090F8EC
:102550002410490706D501684A68036B22F48022DB
:102560001A434A6090F82410090706D501684A68A2
:10257000436B22F400421A434A6090F82410C906C3
:1025800006D501688A68836B22F480521A438A60F8
:1025900090F82410890606D501688A68C36B22F476
:1025A00000521A438A6090F82410490611D5016838
:1025B0004A68036C22F480121A434A60016CB1F538
:1025C000801F06D101684A68436C22F4C0021A4396
:1025D0004A6090F82410090606D501684A68806CA4
:1025E00022F4002202434A607047F8B500260446F0
:1025F0004667FEF7C5F80546206800686FF07E471D
:10260000000708D52B4600224FF400112046009702
:1026100000F04EFA60B92068006840070AD52B46E2
:1026200000224FF480012046009700F041FA08B1E3
:102630000320F8BD202084F8710084F8720084F82B
:1026400070600020F8BD10B5806A0021A0F85A1013
:10265000A0F85210FFF798F810BD70B5846A94F88E
:1026600071000025212808D120688068000604D563
:10267000A4F85250204600F066F894F87200222820
:1026800008D120688068400604D5A4F85A50204636
:1026900000F049F8606F40F0100060672046FFF7D7
:1026A00073F870BD10B50146806A0968096889062B
:1026B00014D40021A0F85A1001680A6822F480722C
:1026C0000A6001688A6822F001028A6001688A68EB
:1026D00022F040028A60202180F87210FFF77AFA17
:1026E00010BD10B5806AFFF776FA10BD10B501462F
:1026F000806A0968096889060DD40021A0F8521083
:1027000001688A6822F080028A600068016841F0EE
:102710004001016010BDFFF7FBFA10BD10B5806AE3
:10272000FFF7F7FA10BD01680A6822F490720A6098
:1027300001688A6822F001028A60202180F8721004
:1027400000210166704701680A6822F0C0020A6031
:10275000202180F87110704710B5B0F85C2090F817
:1027600072300168222B04D0088B40F008000883E7
:1027700010BD898C436D11401980416D891C4165E4
:10278000B0F85A10491E0904090CA0F85A10EFD1EC
:1027900001680A6822F490720A6001688A6822F06F
:1027A00001028A60202180F8721000210166FFF783
:1027B00011FA10BD10B5B0F85C2090F872300168C5
:1027C000222B04D0088B40F00800088310BD898CB0
:1027D0001140426D531C43651170B0F85A10491EE8
:1027E0000904090CA0F85A10F0D101680A6822F413
:1027F00090720A6001688A6822F001028A602021D2
:1028000080F8721000210166FFF7E4F910BD0000A6
:102810002DE9F0410446016880682369E6691843A0
:1028200063691025002733431843954A0B68954E7A
:10283000334003430B6020684168E36821F4405152
:10284000194341602168A069914201D0236A18436D
:102850008B6823F4306303438B608B4B21688B4878
:1028600099420DD1D0F8880010F0030006D001285D
:102870005AD0022856D0032859D157E0012556E0F6
:10288000834B99420BD1D0F8880010F00C0047D050
:10289000042849D0082845D00C2848D146E07D4B73
:1028A00099420BD1D0F8880010F0300038D01028B1
:1028B0003AD0202836D0302839D137E0764B9942AB
:1028C0000BD1D0F8880010F0C00029D040282BD0C0
:1028D000802827D0C0282AD128E0704B99420ED1F9
:1028E000D0F8880010F440701AD0B0F5807F1BD06B
:1028F000B0F5007F16D0B0F5407F18D116E09142B8
:1029000015D1D0F8880010F4406009D0B0F5806F80
:102910000AD0B0F5006F05D0B0F5406F07D105E0E3
:10292000002504E0022502E0042500E008255C4BB8
:1029300000264FF4004091423DD135B1022D07D021
:10294000042D07D0082D10D107E0FEF759FA03E057
:10295000184602E0FEF778FAA8B3626802EB42017B
:10296000814202D8B0EB023F01D9012775E0DFF8C0
:1029700034815DB1022D0CD0042D13D0082DF4D17B
:1029800050082905401846F1000105E0FEF738FA25
:102990000AE050084449F5E70023FDF711FCA0F5D3
:1029A000407156E0FEF750FA6268010E03025008CB
:1029B00018187141F0E7E1694FF6EF7881422FD1A5
:1029C000092DD2D200E048E0DFE805F00609200535
:1029D000230505052600C8E7FEF712FA01E0FEF719
:1029E00021FA4100D4F8040001EB5001B1FBF0F0F2
:1029F00080B2A0F110014145B7D84FF6F071014007
:102A0000C0F3420001432068C16026E027496068A6
:102A1000EAE7FEF719FAE4E74FF480316068E3E78C
:102A2000092DA2D2DFE805F006091E0522050505DD
:102A300025009AE7FEF7E4F901E0FEF7F3F9014615
:102A4000606801EB500100BFB1FBF0F080B2A0F173
:102A50001001414589D82168C860266638466666F7
:102A6000BDE8F081606803EB5001EDE7FEF7ECF99B
:102A7000E5E7616800EB5100B0FBF1F0E6E700002C
:102A800000800040F369FFEF003801400010024071
:102A90000044004000480040004C0040005000400E
:102AA0000024F400FFFC0F00000024F40048E801BB
:102AB0002DE9F041984617460E460446069D1DE056
:102AC000681C1BD02DB1FDF75BFEA0EB0800A842EF
:102AD00014D92068016821F4D071016020688168F0
:102AE00021F001018160202084F8710084F87200D7
:102AF000002084F870000320BDE8F0812068C069E0
:102B000036EA000004D00020B842D9D00020F3E714
:102B10000120F9E770B51A4D2868C169194EC943FB
:102B2000194CC90611D4102101622846FEF702FE95
:102B3000E86E006840681549C0F58060308001206B
:102B4000207082022846FEF7A7FF0D48FEF71EFE02
:102B50002078002813D0002020700C4881782B2981
:102B600006D1C179462903D1094990F8200008709F
:102B70003288BDE8704005490648FFF785B870BD4A
:102B8000500400200400002003000020100000205A
:102B900000000020C80400200148FEF7F7BD000037
:102BA000C8040020FEE702E008C8121F08C1002A7E
:102BB000FAD170477047002001E001C1121F002ABE
:102BC000FBD1704786B04FF0000BCDF800B0CDF8C8
:102BD00004B0CDF808B05C46CDF80CB0FDF7DEFDD2
:102BE000FFF79AFBFFF75EF96148816C41F0010144
:102BF0008164806C002200F00100049011460E20D8
:102C0000FDF71CFE0E20FDF70DFE002211460F20E1
:102C1000FDF714FE0F20FDF705FE002211461020DF
:102C2000FDF70CFE1020FDF7FDFD002211461120DE
:102C3000FDF704FE1120FDF7F5FDFFF7C7F9FFF7DB
:102C40009BF9FFF7D9F9002202212620FDF7F6FDB6
:102C50002620FDF7E7FD002201212520FDF7EEFDEE
:102C60002520FDF7DFFD002211461C20FDF7E6FDC3
:102C70001C20FDF7D7FD3F494FF4806201F58860C5
:102C8000FEF70AFF3C480068016841F0100101604E
:102C900001223A4F560231463846FDF76CFDC820F6
:102CA000FDF776FC002231463846FDF764FDE84624
:102CB0004FF03209DFF8C8A024E000BF8DF8100003
:102CC0002D483223012204A97830FEF785FF012226
:102CD00031463846FDF74FFD6420FDF759FC0022D0
:102CE00031463846FDF747FD55F82400412801D00C
:102CF000641C01E024B1641EE4B2032C02D90AE092
:102D0000CDF800B0FFF708F8454648F82400002841
:102D1000D4D1032C00D900249AF80000554631285C
:102D20000FD03028EED100253220FDF731FC6D1C8C
:102D3000052DF9DB4FF47A70FDF72AFC8AF8009034
:102D4000E0E7012231463846FDF715FD3220FDF758
:102D50001FFC002231463846FDF70DFD302028705B
:102D60004FF47A70FDF714FC85F80090CAE7000074
:102D7000001002401000002050040020000800480D
:102D80000000002000000000000000000102030419
:102D900006070809A0860100400D0300801A0600FE
:102DA00000350C0040420F0080841E0000093D00E9
:102DB00000127A000024F40000366E010048E80199
:102DC000006CDC020000000001020304EC2D00088E
:102DD0000000002010000000A62B0008FC2D0008B9
:102DE00010000020500A0000B62B0008320000003E
:0C2DF000000000000000000000093D0091
:040000050800018965
:00000001FF
